{
  "abi": [
    {
      "anonymous": false,
      "inputs": [
        {
          "indexed": false,
          "internalType": "address",
          "name": "",
          "type": "address"
        },
        {
          "indexed": false,
          "internalType": "address",
          "name": "",
          "type": "address"
        },
        {
          "indexed": false,
          "internalType": "address",
          "name": "",
          "type": "address"
        }
      ],
      "name": "RegisterPair",
      "type": "event"
    },
    {
      "inputs": [
        {
          "internalType": "address",
          "name": "_address",
          "type": "address"
        }
      ],
      "name": "acceptPair",
      "outputs": [],
      "stateMutability": "nonpayable",
      "type": "function"
    },
    {
      "inputs": [
        {
          "internalType": "address",
          "name": "",
          "type": "address"
        }
      ],
      "name": "partners",
      "outputs": [
        {
          "internalType": "contract IERC20",
          "name": "token",
          "type": "address"
        },
        {
          "internalType": "address",
          "name": "partner",
          "type": "address"
        },
        {
          "internalType": "bool",
          "name": "allowed",
          "type": "bool"
        }
      ],
      "stateMutability": "view",
      "type": "function"
    },
    {
      "inputs": [
        {
          "internalType": "address",
          "name": "_token",
          "type": "address"
        }
      ],
      "name": "register",
      "outputs": [],
      "stateMutability": "nonpayable",
      "type": "function"
    },
    {
      "inputs": [
        {
          "internalType": "address",
          "name": "_partner",
          "type": "address"
        }
      ],
      "name": "registerPartner",
      "outputs": [],
      "stateMutability": "nonpayable",
      "type": "function"
    },
    {
      "inputs": [
        {
          "internalType": "address",
          "name": "_address",
          "type": "address"
        }
      ],
      "name": "rejectPair",
      "outputs": [],
      "stateMutability": "nonpayable",
      "type": "function"
    },
    {
      "inputs": [
        {
          "internalType": "uint256",
          "name": "_amount1",
          "type": "uint256"
        },
        {
          "internalType": "uint256",
          "name": "_amount2",
          "type": "uint256"
        }
      ],
      "name": "swap",
      "outputs": [],
      "stateMutability": "nonpayable",
      "type": "function"
    }
  ],
  "bytecode": "608060405234801561001057600080fd5b50610afa806100206000396000f3fe608060405234801561001057600080fd5b50600436106100625760003560e01c806308f7fbbe146100675780634420e4861461007c57806363a53f3e1461008f57806395c33652146100a2578063c32c402e1461010e578063d96073cf14610121575b600080fd5b61007a610075366004610a0a565b610134565b005b61007a61008a366004610a0a565b61030c565b61007a61009d366004610a0a565b610365565b6100e26100b0366004610a0a565b600060208190529081526040902080546001909101546001600160a01b0391821691811690600160a01b900460ff1683565b604080516001600160a01b03948516815293909216602084015215159082015260600160405180910390f35b61007a61011c366004610a0a565b610459565b61007a61012f366004610a3a565b610553565b3361015a5760405162461bcd60e51b815260040161015190610a5c565b60405180910390fd5b336000908152602081905260409020600101546001600160a01b0316156101ce5760405162461bcd60e51b815260206004820152602260248201527f596f7520686176652061207061697220616c72656164792c20636c6f736520696044820152613a1760f11b6064820152608401610151565b6001600160a01b0381166102245760405162461bcd60e51b815260206004820152601860248201527f496e76616c696420706172746e657273206164647265737300000000000000006044820152606401610151565b336001600160a01b038216141561027d5760405162461bcd60e51b815260206004820152601f60248201527f596f752063616e6e6f7420626520796f7572206f776e20706172746e657273006044820152606401610151565b6001600160a01b03818116600090815260208190526040902054166102da5760405162461bcd60e51b81526020600482015260136024820152722830b93a3732b91034b732bc34b9ba32b73a1760691b6044820152606401610151565b33600090815260208190526040902060010180546001600160a01b0319166001600160a01b0392909216919091179055565b336103295760405162461bcd60e51b815260040161015190610a5c565b6000610334826109be565b33600090815260208190526040902080546001600160a01b0319166001600160a01b03929092169190911790555050565b336103825760405162461bcd60e51b815260040161015190610a5c565b6001600160a01b0381166103cd5760405162461bcd60e51b81526020600482015260126024820152711059191c995cdcc81a5cc81a5b9d985b1a5960721b6044820152606401610151565b6001600160a01b038181166000908152602081905260409020600101541633146104325760405162461bcd60e51b81526020600482015260166024820152752cb7ba9030b932903737ba103830b93a3732b939b99760511b6044820152606401610151565b6001600160a01b03166000908152602081905260409020600101805460ff60a01b19169055565b336104765760405162461bcd60e51b815260040161015190610a5c565b6001600160a01b0381166104c15760405162461bcd60e51b81526020600482015260126024820152711059191c995cdcc81a5cc81a5b9d985b1a5960721b6044820152606401610151565b6001600160a01b038181166000908152602081905260409020600101541633146105265760405162461bcd60e51b81526020600482015260166024820152752cb7ba9030b932903737ba103830b93a3732b939b99760511b6044820152606401610151565b6001600160a01b03166000908152602081905260409020600101805460ff60a01b1916600160a01b179055565b336105705760405162461bcd60e51b815260040161015190610a5c565b336000908152602081905260409020600101546001600160a01b03166105e35760405162461bcd60e51b815260206004820152602260248201527f596f752068617665206e6f20706172746e657220666f72207468697320737761604482015261381760f11b6064820152608401610151565b33600090815260208190526040902060010154600160a01b900460ff1661064c5760405162461bcd60e51b815260206004820152601760248201527f596f7520617265206e6f7420616c6c6f77656420746f2e0000000000000000006044820152606401610151565b33600090815260208190526040808220600101546001600160a01b0390811680845291909220549091166106c25760405162461bcd60e51b815260206004820152601b60248201527f596f757220706172746e657220686173206e6f20746f6b656e732e00000000006044820152606401610151565b33600081815260208190526040808220546001600160a01b03858116845292829020549151636eb1769f60e11b8152600481018590523060248201529083169291909116908690839063dd62ed3e90604401602060405180830381865afa158015610731573d6000803e3d6000fd5b505050506040513d601f19601f820116820180604052508101906107559190610a89565b10156107a35760405162461bcd60e51b815260206004820152601b60248201527f546f6b656e203120416c6c6f77616e6365203e20616d6f756e742e00000000006044820152606401610151565b604051636eb1769f60e11b81526001600160a01b03858116600483015230602483015286919083169063dd62ed3e90604401602060405180830381865afa1580156107f2573d6000803e3d6000fd5b505050506040513d601f19601f820116820180604052508101906108169190610a89565b10156108645760405162461bcd60e51b815260206004820152601b60248201527f546f6b656e203220416c6c6f77616e6365203e20616d6f756e742e00000000006044820152606401610151565b6040516323b872dd60e01b81526001600160a01b038481166004830152858116602483015260448201889052600091908416906323b872dd906064016020604051808303816000875af11580156108bf573d6000803e3d6000fd5b505050506040513d601f19601f820116820180604052508101906108e39190610aa2565b6040516323b872dd60e01b81526001600160a01b0387811660048301528681166024830152604482018a90529192506000918416906323b872dd906064016020604051808303816000875af1158015610940573d6000803e3d6000fd5b505050506040513d601f19601f820116820180604052508101906109649190610aa2565b905060008280156109725750815b9050806109b35760405162461bcd60e51b815260206004820152600f60248201526e2a37b5b2b7103737ba1039b2b73a1760891b6044820152606401610151565b505050505050505050565b60006001600160a01b038216610a065760405162461bcd60e51b815260206004820152600d60248201526c24b73b30b634b2103a37b5b2b760991b6044820152606401610151565b5090565b600060208284031215610a1c57600080fd5b81356001600160a01b0381168114610a3357600080fd5b9392505050565b60008060408385031215610a4d57600080fd5b50508035926020909101359150565b6020808252601390820152722737ba1030903b30b634b21039b2b73232b91760691b604082015260600190565b600060208284031215610a9b57600080fd5b5051919050565b600060208284031215610ab457600080fd5b81518015158114610a3357600080fdfea26469706673582212204075e35c27813271a37c46b8d0eef935cd24eca0adb85cf1ad9c7188b843361364736f6c634300080c0033",
  "bytecodeSha1": "b9ec5d4a620e58790abd6303d45e01c06b73402e",
  "compiler": {
    "evm_version": "istanbul",
    "optimizer": {
      "enabled": true,
      "runs": 200
    },
    "version": "0.8.12+commit.f00d7308"
  },
  "contractName": "TokenSwap",
  "language": "Solidity",
  "natspec": {
    "kind": "dev",
    "methods": {},
    "version": 1
  },
  "opcodes": "PUSH1 0x80 PUSH1 0x40 MSTORE CALLVALUE DUP1 ISZERO PUSH2 0x10 JUMPI PUSH1 0x0 DUP1 REVERT JUMPDEST POP PUSH1 0x4 CALLDATASIZE LT PUSH2 0x62 JUMPI PUSH1 0x0 CALLDATALOAD PUSH1 0xE0 SHR DUP1 PUSH4 0x8F7FBBE EQ PUSH2 0x67 JUMPI DUP1 PUSH4 0x4420E486 EQ PUSH2 0x7C JUMPI DUP1 PUSH4 0x63A53F3E EQ PUSH2 0x8F JUMPI DUP1 PUSH4 0x95C33652 EQ PUSH2 0xA2 JUMPI DUP1 PUSH4 0xC32C402E EQ PUSH2 0x10E JUMPI DUP1 PUSH4 0xD96073CF EQ PUSH2 0x121 JUMPI JUMPDEST PUSH1 0x0 DUP1 REVERT JUMPDEST PUSH2 0x7A PUSH2 0x75 CALLDATASIZE PUSH1 0x4 PUSH2 0xA0A JUMP JUMPDEST PUSH2 0x134 JUMP JUMPDEST STOP JUMPDEST PUSH2 0x7A PUSH2 0x8A CALLDATASIZE PUSH1 0x4 PUSH2 0xA0A JUMP JUMPDEST PUSH2 0x30C JUMP JUMPDEST PUSH2 0x7A PUSH2 0x9D CALLDATASIZE PUSH1 0x4 PUSH2 0xA0A JUMP JUMPDEST PUSH2 0x365 JUMP JUMPDEST PUSH2 0xE2 PUSH2 0xB0 CALLDATASIZE PUSH1 0x4 PUSH2 0xA0A JUMP JUMPDEST PUSH1 0x0 PUSH1 0x20 DUP2 SWAP1 MSTORE SWAP1 DUP2 MSTORE PUSH1 0x40 SWAP1 KECCAK256 DUP1 SLOAD PUSH1 0x1 SWAP1 SWAP2 ADD SLOAD PUSH1 0x1 PUSH1 0x1 PUSH1 0xA0 SHL SUB SWAP2 DUP3 AND SWAP2 DUP2 AND SWAP1 PUSH1 0x1 PUSH1 0xA0 SHL SWAP1 DIV PUSH1 0xFF AND DUP4 JUMP JUMPDEST PUSH1 0x40 DUP1 MLOAD PUSH1 0x1 PUSH1 0x1 PUSH1 0xA0 SHL SUB SWAP5 DUP6 AND DUP2 MSTORE SWAP4 SWAP1 SWAP3 AND PUSH1 0x20 DUP5 ADD MSTORE ISZERO ISZERO SWAP1 DUP3 ADD MSTORE PUSH1 0x60 ADD PUSH1 0x40 MLOAD DUP1 SWAP2 SUB SWAP1 RETURN JUMPDEST PUSH2 0x7A PUSH2 0x11C CALLDATASIZE PUSH1 0x4 PUSH2 0xA0A JUMP JUMPDEST PUSH2 0x459 JUMP JUMPDEST PUSH2 0x7A PUSH2 0x12F CALLDATASIZE PUSH1 0x4 PUSH2 0xA3A JUMP JUMPDEST PUSH2 0x553 JUMP JUMPDEST CALLER PUSH2 0x15A JUMPI PUSH1 0x40 MLOAD PUSH3 0x461BCD PUSH1 0xE5 SHL DUP2 MSTORE PUSH1 0x4 ADD PUSH2 0x151 SWAP1 PUSH2 0xA5C JUMP JUMPDEST PUSH1 0x40 MLOAD DUP1 SWAP2 SUB SWAP1 REVERT JUMPDEST CALLER PUSH1 0x0 SWAP1 DUP2 MSTORE PUSH1 0x20 DUP2 SWAP1 MSTORE PUSH1 0x40 SWAP1 KECCAK256 PUSH1 0x1 ADD SLOAD PUSH1 0x1 PUSH1 0x1 PUSH1 0xA0 SHL SUB AND ISZERO PUSH2 0x1CE JUMPI PUSH1 0x40 MLOAD PUSH3 0x461BCD PUSH1 0xE5 SHL DUP2 MSTORE PUSH1 0x20 PUSH1 0x4 DUP3 ADD MSTORE PUSH1 0x22 PUSH1 0x24 DUP3 ADD MSTORE PUSH32 0x596F7520686176652061207061697220616C72656164792C20636C6F73652069 PUSH1 0x44 DUP3 ADD MSTORE PUSH2 0x3A17 PUSH1 0xF1 SHL PUSH1 0x64 DUP3 ADD MSTORE PUSH1 0x84 ADD PUSH2 0x151 JUMP JUMPDEST PUSH1 0x1 PUSH1 0x1 PUSH1 0xA0 SHL SUB DUP2 AND PUSH2 0x224 JUMPI PUSH1 0x40 MLOAD PUSH3 0x461BCD PUSH1 0xE5 SHL DUP2 MSTORE PUSH1 0x20 PUSH1 0x4 DUP3 ADD MSTORE PUSH1 0x18 PUSH1 0x24 DUP3 ADD MSTORE PUSH32 0x496E76616C696420706172746E65727320616464726573730000000000000000 PUSH1 0x44 DUP3 ADD MSTORE PUSH1 0x64 ADD PUSH2 0x151 JUMP JUMPDEST CALLER PUSH1 0x1 PUSH1 0x1 PUSH1 0xA0 SHL SUB DUP3 AND EQ ISZERO PUSH2 0x27D JUMPI PUSH1 0x40 MLOAD PUSH3 0x461BCD PUSH1 0xE5 SHL DUP2 MSTORE PUSH1 0x20 PUSH1 0x4 DUP3 ADD MSTORE PUSH1 0x1F PUSH1 0x24 DUP3 ADD MSTORE PUSH32 0x596F752063616E6E6F7420626520796F7572206F776E20706172746E65727300 PUSH1 0x44 DUP3 ADD MSTORE PUSH1 0x64 ADD PUSH2 0x151 JUMP JUMPDEST PUSH1 0x1 PUSH1 0x1 PUSH1 0xA0 SHL SUB DUP2 DUP2 AND PUSH1 0x0 SWAP1 DUP2 MSTORE PUSH1 0x20 DUP2 SWAP1 MSTORE PUSH1 0x40 SWAP1 KECCAK256 SLOAD AND PUSH2 0x2DA JUMPI PUSH1 0x40 MLOAD PUSH3 0x461BCD PUSH1 0xE5 SHL DUP2 MSTORE PUSH1 0x20 PUSH1 0x4 DUP3 ADD MSTORE PUSH1 0x13 PUSH1 0x24 DUP3 ADD MSTORE PUSH19 0x2830B93A3732B91034B732BC34B9BA32B73A17 PUSH1 0x69 SHL PUSH1 0x44 DUP3 ADD MSTORE PUSH1 0x64 ADD PUSH2 0x151 JUMP JUMPDEST CALLER PUSH1 0x0 SWAP1 DUP2 MSTORE PUSH1 0x20 DUP2 SWAP1 MSTORE PUSH1 0x40 SWAP1 KECCAK256 PUSH1 0x1 ADD DUP1 SLOAD PUSH1 0x1 PUSH1 0x1 PUSH1 0xA0 SHL SUB NOT AND PUSH1 0x1 PUSH1 0x1 PUSH1 0xA0 SHL SUB SWAP3 SWAP1 SWAP3 AND SWAP2 SWAP1 SWAP2 OR SWAP1 SSTORE JUMP JUMPDEST CALLER PUSH2 0x329 JUMPI PUSH1 0x40 MLOAD PUSH3 0x461BCD PUSH1 0xE5 SHL DUP2 MSTORE PUSH1 0x4 ADD PUSH2 0x151 SWAP1 PUSH2 0xA5C JUMP JUMPDEST PUSH1 0x0 PUSH2 0x334 DUP3 PUSH2 0x9BE JUMP JUMPDEST CALLER PUSH1 0x0 SWAP1 DUP2 MSTORE PUSH1 0x20 DUP2 SWAP1 MSTORE PUSH1 0x40 SWAP1 KECCAK256 DUP1 SLOAD PUSH1 0x1 PUSH1 0x1 PUSH1 0xA0 SHL SUB NOT AND PUSH1 0x1 PUSH1 0x1 PUSH1 0xA0 SHL SUB SWAP3 SWAP1 SWAP3 AND SWAP2 SWAP1 SWAP2 OR SWAP1 SSTORE POP POP JUMP JUMPDEST CALLER PUSH2 0x382 JUMPI PUSH1 0x40 MLOAD PUSH3 0x461BCD PUSH1 0xE5 SHL DUP2 MSTORE PUSH1 0x4 ADD PUSH2 0x151 SWAP1 PUSH2 0xA5C JUMP JUMPDEST PUSH1 0x1 PUSH1 0x1 PUSH1 0xA0 SHL SUB DUP2 AND PUSH2 0x3CD JUMPI PUSH1 0x40 MLOAD PUSH3 0x461BCD PUSH1 0xE5 SHL DUP2 MSTORE PUSH1 0x20 PUSH1 0x4 DUP3 ADD MSTORE PUSH1 0x12 PUSH1 0x24 DUP3 ADD MSTORE PUSH18 0x1059191C995CDCC81A5CC81A5B9D985B1A59 PUSH1 0x72 SHL PUSH1 0x44 DUP3 ADD MSTORE PUSH1 0x64 ADD PUSH2 0x151 JUMP JUMPDEST PUSH1 0x1 PUSH1 0x1 PUSH1 0xA0 SHL SUB DUP2 DUP2 AND PUSH1 0x0 SWAP1 DUP2 MSTORE PUSH1 0x20 DUP2 SWAP1 MSTORE PUSH1 0x40 SWAP1 KECCAK256 PUSH1 0x1 ADD SLOAD AND CALLER EQ PUSH2 0x432 JUMPI PUSH1 0x40 MLOAD PUSH3 0x461BCD PUSH1 0xE5 SHL DUP2 MSTORE PUSH1 0x20 PUSH1 0x4 DUP3 ADD MSTORE PUSH1 0x16 PUSH1 0x24 DUP3 ADD MSTORE PUSH22 0x2CB7BA9030B932903737BA103830B93A3732B939B997 PUSH1 0x51 SHL PUSH1 0x44 DUP3 ADD MSTORE PUSH1 0x64 ADD PUSH2 0x151 JUMP JUMPDEST PUSH1 0x1 PUSH1 0x1 PUSH1 0xA0 SHL SUB AND PUSH1 0x0 SWAP1 DUP2 MSTORE PUSH1 0x20 DUP2 SWAP1 MSTORE PUSH1 0x40 SWAP1 KECCAK256 PUSH1 0x1 ADD DUP1 SLOAD PUSH1 0xFF PUSH1 0xA0 SHL NOT AND SWAP1 SSTORE JUMP JUMPDEST CALLER PUSH2 0x476 JUMPI PUSH1 0x40 MLOAD PUSH3 0x461BCD PUSH1 0xE5 SHL DUP2 MSTORE PUSH1 0x4 ADD PUSH2 0x151 SWAP1 PUSH2 0xA5C JUMP JUMPDEST PUSH1 0x1 PUSH1 0x1 PUSH1 0xA0 SHL SUB DUP2 AND PUSH2 0x4C1 JUMPI PUSH1 0x40 MLOAD PUSH3 0x461BCD PUSH1 0xE5 SHL DUP2 MSTORE PUSH1 0x20 PUSH1 0x4 DUP3 ADD MSTORE PUSH1 0x12 PUSH1 0x24 DUP3 ADD MSTORE PUSH18 0x1059191C995CDCC81A5CC81A5B9D985B1A59 PUSH1 0x72 SHL PUSH1 0x44 DUP3 ADD MSTORE PUSH1 0x64 ADD PUSH2 0x151 JUMP JUMPDEST PUSH1 0x1 PUSH1 0x1 PUSH1 0xA0 SHL SUB DUP2 DUP2 AND PUSH1 0x0 SWAP1 DUP2 MSTORE PUSH1 0x20 DUP2 SWAP1 MSTORE PUSH1 0x40 SWAP1 KECCAK256 PUSH1 0x1 ADD SLOAD AND CALLER EQ PUSH2 0x526 JUMPI PUSH1 0x40 MLOAD PUSH3 0x461BCD PUSH1 0xE5 SHL DUP2 MSTORE PUSH1 0x20 PUSH1 0x4 DUP3 ADD MSTORE PUSH1 0x16 PUSH1 0x24 DUP3 ADD MSTORE PUSH22 0x2CB7BA9030B932903737BA103830B93A3732B939B997 PUSH1 0x51 SHL PUSH1 0x44 DUP3 ADD MSTORE PUSH1 0x64 ADD PUSH2 0x151 JUMP JUMPDEST PUSH1 0x1 PUSH1 0x1 PUSH1 0xA0 SHL SUB AND PUSH1 0x0 SWAP1 DUP2 MSTORE PUSH1 0x20 DUP2 SWAP1 MSTORE PUSH1 0x40 SWAP1 KECCAK256 PUSH1 0x1 ADD DUP1 SLOAD PUSH1 0xFF PUSH1 0xA0 SHL NOT AND PUSH1 0x1 PUSH1 0xA0 SHL OR SWAP1 SSTORE JUMP JUMPDEST CALLER PUSH2 0x570 JUMPI PUSH1 0x40 MLOAD PUSH3 0x461BCD PUSH1 0xE5 SHL DUP2 MSTORE PUSH1 0x4 ADD PUSH2 0x151 SWAP1 PUSH2 0xA5C JUMP JUMPDEST CALLER PUSH1 0x0 SWAP1 DUP2 MSTORE PUSH1 0x20 DUP2 SWAP1 MSTORE PUSH1 0x40 SWAP1 KECCAK256 PUSH1 0x1 ADD SLOAD PUSH1 0x1 PUSH1 0x1 PUSH1 0xA0 SHL SUB AND PUSH2 0x5E3 JUMPI PUSH1 0x40 MLOAD PUSH3 0x461BCD PUSH1 0xE5 SHL DUP2 MSTORE PUSH1 0x20 PUSH1 0x4 DUP3 ADD MSTORE PUSH1 0x22 PUSH1 0x24 DUP3 ADD MSTORE PUSH32 0x596F752068617665206E6F20706172746E657220666F72207468697320737761 PUSH1 0x44 DUP3 ADD MSTORE PUSH2 0x3817 PUSH1 0xF1 SHL PUSH1 0x64 DUP3 ADD MSTORE PUSH1 0x84 ADD PUSH2 0x151 JUMP JUMPDEST CALLER PUSH1 0x0 SWAP1 DUP2 MSTORE PUSH1 0x20 DUP2 SWAP1 MSTORE PUSH1 0x40 SWAP1 KECCAK256 PUSH1 0x1 ADD SLOAD PUSH1 0x1 PUSH1 0xA0 SHL SWAP1 DIV PUSH1 0xFF AND PUSH2 0x64C JUMPI PUSH1 0x40 MLOAD PUSH3 0x461BCD PUSH1 0xE5 SHL DUP2 MSTORE PUSH1 0x20 PUSH1 0x4 DUP3 ADD MSTORE PUSH1 0x17 PUSH1 0x24 DUP3 ADD MSTORE PUSH32 0x596F7520617265206E6F7420616C6C6F77656420746F2E000000000000000000 PUSH1 0x44 DUP3 ADD MSTORE PUSH1 0x64 ADD PUSH2 0x151 JUMP JUMPDEST CALLER PUSH1 0x0 SWAP1 DUP2 MSTORE PUSH1 0x20 DUP2 SWAP1 MSTORE PUSH1 0x40 DUP1 DUP3 KECCAK256 PUSH1 0x1 ADD SLOAD PUSH1 0x1 PUSH1 0x1 PUSH1 0xA0 SHL SUB SWAP1 DUP2 AND DUP1 DUP5 MSTORE SWAP2 SWAP1 SWAP3 KECCAK256 SLOAD SWAP1 SWAP2 AND PUSH2 0x6C2 JUMPI PUSH1 0x40 MLOAD PUSH3 0x461BCD PUSH1 0xE5 SHL DUP2 MSTORE PUSH1 0x20 PUSH1 0x4 DUP3 ADD MSTORE PUSH1 0x1B PUSH1 0x24 DUP3 ADD MSTORE PUSH32 0x596F757220706172746E657220686173206E6F20746F6B656E732E0000000000 PUSH1 0x44 DUP3 ADD MSTORE PUSH1 0x64 ADD PUSH2 0x151 JUMP JUMPDEST CALLER PUSH1 0x0 DUP2 DUP2 MSTORE PUSH1 0x20 DUP2 SWAP1 MSTORE PUSH1 0x40 DUP1 DUP3 KECCAK256 SLOAD PUSH1 0x1 PUSH1 0x1 PUSH1 0xA0 SHL SUB DUP6 DUP2 AND DUP5 MSTORE SWAP3 DUP3 SWAP1 KECCAK256 SLOAD SWAP2 MLOAD PUSH4 0x6EB1769F PUSH1 0xE1 SHL DUP2 MSTORE PUSH1 0x4 DUP2 ADD DUP6 SWAP1 MSTORE ADDRESS PUSH1 0x24 DUP3 ADD MSTORE SWAP1 DUP4 AND SWAP3 SWAP2 SWAP1 SWAP2 AND SWAP1 DUP7 SWAP1 DUP4 SWAP1 PUSH4 0xDD62ED3E SWAP1 PUSH1 0x44 ADD PUSH1 0x20 PUSH1 0x40 MLOAD DUP1 DUP4 SUB DUP2 DUP7 GAS STATICCALL ISZERO DUP1 ISZERO PUSH2 0x731 JUMPI RETURNDATASIZE PUSH1 0x0 DUP1 RETURNDATACOPY RETURNDATASIZE PUSH1 0x0 REVERT JUMPDEST POP POP POP POP PUSH1 0x40 MLOAD RETURNDATASIZE PUSH1 0x1F NOT PUSH1 0x1F DUP3 ADD AND DUP3 ADD DUP1 PUSH1 0x40 MSTORE POP DUP2 ADD SWAP1 PUSH2 0x755 SWAP2 SWAP1 PUSH2 0xA89 JUMP JUMPDEST LT ISZERO PUSH2 0x7A3 JUMPI PUSH1 0x40 MLOAD PUSH3 0x461BCD PUSH1 0xE5 SHL DUP2 MSTORE PUSH1 0x20 PUSH1 0x4 DUP3 ADD MSTORE PUSH1 0x1B PUSH1 0x24 DUP3 ADD MSTORE PUSH32 0x546F6B656E203120416C6C6F77616E6365203E20616D6F756E742E0000000000 PUSH1 0x44 DUP3 ADD MSTORE PUSH1 0x64 ADD PUSH2 0x151 JUMP JUMPDEST PUSH1 0x40 MLOAD PUSH4 0x6EB1769F PUSH1 0xE1 SHL DUP2 MSTORE PUSH1 0x1 PUSH1 0x1 PUSH1 0xA0 SHL SUB DUP6 DUP2 AND PUSH1 0x4 DUP4 ADD MSTORE ADDRESS PUSH1 0x24 DUP4 ADD MSTORE DUP7 SWAP2 SWAP1 DUP4 AND SWAP1 PUSH4 0xDD62ED3E SWAP1 PUSH1 0x44 ADD PUSH1 0x20 PUSH1 0x40 MLOAD DUP1 DUP4 SUB DUP2 DUP7 GAS STATICCALL ISZERO DUP1 ISZERO PUSH2 0x7F2 JUMPI RETURNDATASIZE PUSH1 0x0 DUP1 RETURNDATACOPY RETURNDATASIZE PUSH1 0x0 REVERT JUMPDEST POP POP POP POP PUSH1 0x40 MLOAD RETURNDATASIZE PUSH1 0x1F NOT PUSH1 0x1F DUP3 ADD AND DUP3 ADD DUP1 PUSH1 0x40 MSTORE POP DUP2 ADD SWAP1 PUSH2 0x816 SWAP2 SWAP1 PUSH2 0xA89 JUMP JUMPDEST LT ISZERO PUSH2 0x864 JUMPI PUSH1 0x40 MLOAD PUSH3 0x461BCD PUSH1 0xE5 SHL DUP2 MSTORE PUSH1 0x20 PUSH1 0x4 DUP3 ADD MSTORE PUSH1 0x1B PUSH1 0x24 DUP3 ADD MSTORE PUSH32 0x546F6B656E203220416C6C6F77616E6365203E20616D6F756E742E0000000000 PUSH1 0x44 DUP3 ADD MSTORE PUSH1 0x64 ADD PUSH2 0x151 JUMP JUMPDEST PUSH1 0x40 MLOAD PUSH4 0x23B872DD PUSH1 0xE0 SHL DUP2 MSTORE PUSH1 0x1 PUSH1 0x1 PUSH1 0xA0 SHL SUB DUP5 DUP2 AND PUSH1 0x4 DUP4 ADD MSTORE DUP6 DUP2 AND PUSH1 0x24 DUP4 ADD MSTORE PUSH1 0x44 DUP3 ADD DUP9 SWAP1 MSTORE PUSH1 0x0 SWAP2 SWAP1 DUP5 AND SWAP1 PUSH4 0x23B872DD SWAP1 PUSH1 0x64 ADD PUSH1 0x20 PUSH1 0x40 MLOAD DUP1 DUP4 SUB DUP2 PUSH1 0x0 DUP8 GAS CALL ISZERO DUP1 ISZERO PUSH2 0x8BF JUMPI RETURNDATASIZE PUSH1 0x0 DUP1 RETURNDATACOPY RETURNDATASIZE PUSH1 0x0 REVERT JUMPDEST POP POP POP POP PUSH1 0x40 MLOAD RETURNDATASIZE PUSH1 0x1F NOT PUSH1 0x1F DUP3 ADD AND DUP3 ADD DUP1 PUSH1 0x40 MSTORE POP DUP2 ADD SWAP1 PUSH2 0x8E3 SWAP2 SWAP1 PUSH2 0xAA2 JUMP JUMPDEST PUSH1 0x40 MLOAD PUSH4 0x23B872DD PUSH1 0xE0 SHL DUP2 MSTORE PUSH1 0x1 PUSH1 0x1 PUSH1 0xA0 SHL SUB DUP8 DUP2 AND PUSH1 0x4 DUP4 ADD MSTORE DUP7 DUP2 AND PUSH1 0x24 DUP4 ADD MSTORE PUSH1 0x44 DUP3 ADD DUP11 SWAP1 MSTORE SWAP2 SWAP3 POP PUSH1 0x0 SWAP2 DUP5 AND SWAP1 PUSH4 0x23B872DD SWAP1 PUSH1 0x64 ADD PUSH1 0x20 PUSH1 0x40 MLOAD DUP1 DUP4 SUB DUP2 PUSH1 0x0 DUP8 GAS CALL ISZERO DUP1 ISZERO PUSH2 0x940 JUMPI RETURNDATASIZE PUSH1 0x0 DUP1 RETURNDATACOPY RETURNDATASIZE PUSH1 0x0 REVERT JUMPDEST POP POP POP POP PUSH1 0x40 MLOAD RETURNDATASIZE PUSH1 0x1F NOT PUSH1 0x1F DUP3 ADD AND DUP3 ADD DUP1 PUSH1 0x40 MSTORE POP DUP2 ADD SWAP1 PUSH2 0x964 SWAP2 SWAP1 PUSH2 0xAA2 JUMP JUMPDEST SWAP1 POP PUSH1 0x0 DUP3 DUP1 ISZERO PUSH2 0x972 JUMPI POP DUP2 JUMPDEST SWAP1 POP DUP1 PUSH2 0x9B3 JUMPI PUSH1 0x40 MLOAD PUSH3 0x461BCD PUSH1 0xE5 SHL DUP2 MSTORE PUSH1 0x20 PUSH1 0x4 DUP3 ADD MSTORE PUSH1 0xF PUSH1 0x24 DUP3 ADD MSTORE PUSH15 0x2A37B5B2B7103737BA1039B2B73A17 PUSH1 0x89 SHL PUSH1 0x44 DUP3 ADD MSTORE PUSH1 0x64 ADD PUSH2 0x151 JUMP JUMPDEST POP POP POP POP POP POP POP POP POP JUMP JUMPDEST PUSH1 0x0 PUSH1 0x1 PUSH1 0x1 PUSH1 0xA0 SHL SUB DUP3 AND PUSH2 0xA06 JUMPI PUSH1 0x40 MLOAD PUSH3 0x461BCD PUSH1 0xE5 SHL DUP2 MSTORE PUSH1 0x20 PUSH1 0x4 DUP3 ADD MSTORE PUSH1 0xD PUSH1 0x24 DUP3 ADD MSTORE PUSH13 0x24B73B30B634B2103A37B5B2B7 PUSH1 0x99 SHL PUSH1 0x44 DUP3 ADD MSTORE PUSH1 0x64 ADD PUSH2 0x151 JUMP JUMPDEST POP SWAP1 JUMP JUMPDEST PUSH1 0x0 PUSH1 0x20 DUP3 DUP5 SUB SLT ISZERO PUSH2 0xA1C JUMPI PUSH1 0x0 DUP1 REVERT JUMPDEST DUP2 CALLDATALOAD PUSH1 0x1 PUSH1 0x1 PUSH1 0xA0 SHL SUB DUP2 AND DUP2 EQ PUSH2 0xA33 JUMPI PUSH1 0x0 DUP1 REVERT JUMPDEST SWAP4 SWAP3 POP POP POP JUMP JUMPDEST PUSH1 0x0 DUP1 PUSH1 0x40 DUP4 DUP6 SUB SLT ISZERO PUSH2 0xA4D JUMPI PUSH1 0x0 DUP1 REVERT JUMPDEST POP POP DUP1 CALLDATALOAD SWAP3 PUSH1 0x20 SWAP1 SWAP2 ADD CALLDATALOAD SWAP2 POP JUMP JUMPDEST PUSH1 0x20 DUP1 DUP3 MSTORE PUSH1 0x13 SWAP1 DUP3 ADD MSTORE PUSH19 0x2737BA1030903B30B634B21039B2B73232B917 PUSH1 0x69 SHL PUSH1 0x40 DUP3 ADD MSTORE PUSH1 0x60 ADD SWAP1 JUMP JUMPDEST PUSH1 0x0 PUSH1 0x20 DUP3 DUP5 SUB SLT ISZERO PUSH2 0xA9B JUMPI PUSH1 0x0 DUP1 REVERT JUMPDEST POP MLOAD SWAP2 SWAP1 POP JUMP JUMPDEST PUSH1 0x0 PUSH1 0x20 DUP3 DUP5 SUB SLT ISZERO PUSH2 0xAB4 JUMPI PUSH1 0x0 DUP1 REVERT JUMPDEST DUP2 MLOAD DUP1 ISZERO ISZERO DUP2 EQ PUSH2 0xA33 JUMPI PUSH1 0x0 DUP1 REVERT INVALID LOG2 PUSH5 0x6970667358 0x22 SLT KECCAK256 BLOCKHASH PUSH22 0xE35C27813271A37C46B8D0EEF935CD24ECA0ADB85CF1 0xAD SWAP13 PUSH18 0x88B843361364736F6C634300080C00330000 ",
  "sha1": "0366c79dd863d21c030dfac10adb791b41e1945c",
  "source": "// SPDX-License-Identifier: MIT\npragma solidity >0.6.0;\nimport \"./Interfaces/IERC20.sol\";\n\n/*\n * @title: \n * @author: Anthony (fps) https://github.com/fps8k.\n * @dev: \n * The contract below demonstrate a swap of two tokens between two parties at the same time (atomic).\n *\n * Alice owns token 1.\n * Bob owns token 2.\n * The function in contract below will execute successfully only if it can swap both tokens at the same exact time.\n * Think about the future possibilities of this type of exchange. \n * This contract eliminates the need of trust between two parties.\n *\n *\n * Can we make this contract more open?\n*/\n\ncontract TokenSwap\n{\n    /*\n    * @dev: Struct:: Pair.\n    *\n    * Data mapped to an address, each address has a unique map.\n    * It contains:\n    * - The user's `token`.\n    * - The users preferred `partners`.\n    * - `allowed`, which is true if the `parter` has accepted the pair with the owner.\n    */\n\n    struct Pair\n    {\n        IERC20 token;\n        address partner;\n        bool allowed;\n    }\n\n\n    /*\n    * @dev: Mapping:: partners.\n    *\n    * mapping an the `msg.sender`'s address to his own Pair struct.\n    */\n\n    mapping(address => Pair) public partners;\n\n\n    /*\n    * @dev: Events.\n    *\n    * Emitted on specific functions.\n    */\n\n    event RegisterPair(address, address, address);  // Owner, token, partner.\n\n\n\n\n    /*\n    * @dev: Modifier isValidSender.\n    *\n    * Requires that the `msg.sender` is not a 0 address.\n    */\n\n    modifier isValidSender()\n    {\n        require(msg.sender != address(0), \"Not a valid sender.\");\n        _;\n    }\n\n\n\n\n    /*\n    * @devL initiateToken(address __token).\n    *\n    * Initialized a new token for the person who choses to register a new pair.\n    */\n    function initiateToken(address __token) private pure returns(IERC20 initalized_token)\n    {\n        require(__token != address(0), \"Invalid token\");\n        initalized_token = IERC20(__token);\n    }\n\n\n\n\n    /*\n    * @dev: register().\n    *\n    * Creates a new user with initialized `_token`.\n    */\n\n    function register(address _token) public isValidSender\n    {\n        IERC20 ini_token = initiateToken(_token);\n        partners[msg.sender].token = ini_token;\n    }\n    \n    \n    \n    \n    /*\n    * @dev: registerPartner(address _token, address _partner).\n    *\n    * `msg.sender` creates a new pair with `_token` and choses `_partner` as partners.\n    *\n    * Conditions:\n    *\n    * The `msg.sender` has no created pairs yet.\n    */\n\n    function registerPartner(address _partner) public isValidSender\n    {\n        require(partners[msg.sender].partner == address(0), \"You have a pair already, close it.\");\n        require(_partner != address(0), \"Invalid partners address\");\n        require(msg.sender != _partner, \"You cannot be your own partners\");\n        require(partners[_partner].token != IERC20(address(0)), \"Partner inexistent.\");\n        \n        partners[msg.sender].partner = _partner;\n    }\n    \n\n\n\n    /*\n    * @dev: acceptPair(address _address).\n    *\n    * `msg.sender` accepts to be the `partner` proposed by the `_address`.\n    * The `_address` here is the person who requested through registerPair().\n    * The allowed is set to true.\n    */\n\n    function acceptPair(address _address) public isValidSender\n    {\n        require(_address != address(0), \"Address is invalid\");\n        require(partners[_address].partner == msg.sender, \"You are not partnerss.\");\n\n        partners[_address].allowed = true;\n    }\n\n\n\n\n    /*\n    * @dev: rejectPair(address _address).\n    *\n    * `msg.sender` rejects to be the `partner` proposed by the `_address`.\n    * The `_address` here is the person who requested through registerPair().\n    * The allowed is set to false.\n    */\n    \n    function rejectPair(address _address) public isValidSender\n    {\n        require(_address != address(0), \"Address is invalid\");\n        require(partners[_address].partner == msg.sender, \"You are not partnerss.\");\n\n        partners[_address].allowed = false;\n    }\n\n\n\n\n    /*\n    * @dev: swap(uint256 _amount1, uint256 _amount2).\n    * \n    * Swaps tokens between two persons.\n    * `msg.sender` must have a `partner` with the `allowed` set to `true`.\n    * The `partner` must have his own `token`.\n    * The `allowance` from the both of them wrt to the contract must be greater than the `_amount1` and `_amount2` for `msg.sender` and `partner` respectively.\n    * \n    * Make the transferFrom.\n    */\n    \n    function swap(uint256 _amount1, uint256 _amount2) public isValidSender\n    {\n        require(partners[msg.sender].partner != address(0), \"You have no partner for this swap.\");\n        require(partners[msg.sender].allowed, \"You are not allowed to.\");\n\n\n        address _partner = partners[msg.sender].partner;\n        require(partners[_partner].token != IERC20(address(0)), \"Your partner has no tokens.\");\n\n        address owner = msg.sender;\n\n        IERC20 token1 = partners[owner].token;\n        IERC20 token2 = partners[_partner].token;\n\n        require(token1.allowance(owner, address(this)) >= _amount1, \"Token 1 Allowance > amount.\");\n        require(token2.allowance(_partner, address(this)) >= _amount2, \"Token 2 Allowance > amount.\");\n\n        bool s1 = token1.transferFrom(owner, _partner, _amount1);\n        bool s2 = token2.transferFrom(_partner, owner, _amount1);\n\n        bool sent = s1 && s2;\n\n        require(sent, \"Token not sent.\");\n    }\n}",
  "sourcePath": "contracts/TokenSwap.sol",
  "type": "contract"
}